:020000021000EC
:10000000E03F082095010100FB000100E100010034
:10001000090101001901010029010100000000008F
:10002000000000000000000000000000810A010044
:100030003901010000000000E10A0100590101003E
:100040006506010065060100650601006506010000
:1000500065060100650601006506010065060100F0
:1000600065060100650601006506010065060100E0
:1000700065060100650601006506010065060100D0
:1000800065060100650601006506010065060100C0
:1000900065060100650601006506010065060100B0
:1000A00065060100650601006506010065060100A0
:1000B0006506010065060100650601006506010090
:1000C000650601006506010065060100FC74040078
:1000D00000C007207C03000080C307201C1B000019
:1000E00004207146084203D0EFF3098000F0D8BA2B
:1000F000EFF3088000F0D4BA704708B5014803F068
:10010000B3FDFEE7A20C040008B5024803F0ACFD05
:10011000FEE700BFAD0C040008B5024803F0A4FDE3
:10012000FEE700BFB80C040008B5024803F09CFDD0
:10013000FEE700BFC30C040008B5024803F094FDBD
:10014000FEE700BFD00C040008B5024803F08CFDA8
:10015000FEE700BFDE0C040008B501F0D3FF00F09D
:10016000E1FCBDE8084001F0E1BF0B4610B5401AC4
:100170005C1AA24203D9C45843F8044BF8E710BDF7
:100180000346002210B51C1AA14202D943F8042BE1
:10019000F9E710BD154800F033F8144800F033F8C3
:1001A000134C144DAC4209D3134DAC420ED254F84B
:1001B000080B54F8041CFFF7E3FFF6E794E803008C
:1001C0000C3454F8042CFFF7D0FFEBE727F02EF99E
:1001D00000F030F80BF0D2F80CF018FC4FF4164099
:1001E00000F07EFB054803F03FFDFEE7E03F0820FE
:1001F000CC000100D8000100E0000100F20C040076
:1002000080F30988704780F30888704780F311886D
:100210007047FFFF014B1878704700BF8CC3072061
:1002200003490B6803604B6843608B6883607047C9
:1002300080C3072030B585B002F0E0FE684602F0CA
:1002400085FE774C009B2360019B6360029BA3604B
:1002500000F098FA00F0F0FA724BB0FBF3F03C2893
:10026000714B00F29A80292880F0A180142800F2B6
:100270009B803A221A60082398226C4900200B7652
:100280004B768B7681F82030694B83F8052383F811
:10029000062383F8072383F80823902283F80A2390
:1002A00083F80B2383F80C23702283F80E2383F842
:1002B0000F23582283F8122383F8132383F814237F
:1002C00083F81523782283F81923A02283F80023CA
:1002D00083F8012383F8022383F8032383F804239C
:1002E00083F8092383F80D2383F8102383F811235F
:1002F00083F8162383F8172383F8182383F81A2327
:1003000083F81B2383F81C2383F81E2383F81F2301
:1003100083F8202383F81D2383F8212383F82223E5
:10032000CB6823F4E0631B041B0C43F0BF6343F46E
:100330000033CB60FFF76AFF61B662B64FF4164038
:1003400000F0CEFA3B480BF0B5FF3B480BF0B8FF8E
:1003500000233A4C194620680222806828F000FFEA
:1003600000232068304C19460222406828F0F8FE2D
:100370000BF0C0FFD4F88031314D13F0010F1FD0C6
:10038000304800F0F5FA01232B70D4F8803143F0A7
:100390000103C4F8803105B030BD50280AD9642863
:1003A0000BD945F23A0265E741F23A0262E742F2BE
:1003B0003A025FE743F23A025CE744F23A0259E755
:1003C000D4F880319B0709D51F4800F0D1FA0223E9
:1003D0002B70D4F8803143F00203DAE7D4F880318F
:1003E00013F0040319D0194B9A6C194B9A4208D197
:1003F000052318482B7000F0BBFA0022134B9A64B7
:10040000C9E7042314482B7000F0B2FAD4F8803105
:1004100043F00403C4F88031EFE72B70BBE700BF63
:1004200080C3072040420F0000C00F4000ED00E0F5
:1004300000E100E0590901004109010060C1072005
:100440008CC30720280B04006B0B04000040024003
:10045000EFBEADDE450B0400620B040038B50D465F
:10046000044600F021FB094A01234DB1D2F8C40033
:10047000A3400343C2F8C430BDE8384000F024BBB9
:10048000D2F8C410A34021EA0303F3E700C00F40F1
:100490002DE9F0414FEA40080E4600F005FB4246C8
:1004A0000320002125F0FCFA0A4F4246D7E9004517
:1004B00024EA000425EA010506F00300002125F0E6
:1004C000EFFA20432943C7E90001BDE8F04100F0FD
:1004D000FBBA00BFA8C10F40012110B50F4B104C53
:1004E0000846236002F066FC4FF0FF3223689A61F1
:1004F0004FF47A72DA6100221A620A4A5A6240F2B2
:1005000009225A615A6942F040025A611822064B88
:1005100083F8022304221A6010BD00BF008000404F
:1005200098C3072060E3160000E100E0084B10B517
:100530001B68084C9A682188986889B28242F9D869
:100540000B46002242EA00021046194610BD00BFC9
:1005500098C3072094C3072010B504468EB006A8A0
:100560000BF0E6FD0A9B069A05930B9B0749049343
:100570000C9B204603930D9B0293099B0193089BC0
:100580000093079B28F016FF0EB010BDA60B0400C9
:1005900010B5044C23681BB901200BF0C1FD20608D
:1005A000206810BD90C3072038B52B4C2368254622
:1005B0001A6812F0100F0ED010221A60FFF7E8FF31
:1005C0002368D96A07F0EEFE2268936803F51C538E
:1005D0001033136238BD540707D504221A60FFF7A1
:1005E000D7FFBDE8384007F0EBBED00707D50122A2
:1005F0001A601A4A138801339BB2138038BD9107E1
:1006000015D502221A6001F0A1FC022809D009F0D8
:1006100059F92A689368D1690B4403F57A73D36159
:1006200038BD2A68536923F008035361F1E71207C4
:100630000ED50822AA211A604FF08042117255216E
:1006400011729A6802F5B71202F558725A6238BDF3
:10065000034828F027FCFEE798C3072094C307202F
:10066000850B040008B501F04DFD094B094A1978C6
:10067000094B1039C9B253F82130934203D10748CE
:1006800003F001FBFEE79847BDE8084001F04EBDCE
:1006900004ED00E04901010000C007206B0C0400DC
:1006A000036888B000934368114A019383680293FA
:1006B000C3680393036904934369059383690693AD
:1006C000C36907930B4B9A64069ADA64059A013A58
:1006D0001A65079A5A654FF08043AA221A720022BF
:1006E0001A70009B019B029B039B049B08B0704700
:1006F000EFBEADDE00400240AA22034BC3F88C20BF
:100700005522C3F88C20704700C00F402DE9F04FF0
:1007100000240C6014601C6040F2FF14DFF860A03D
:100720004FF4FA55002604FB055B06F1010CBBFBF8
:10073000FCF8124FA8F58625A5F50E75BD421AD90D
:100740006646202EF1D1013C052CE9D10020BDE800
:10075000F08FB9F5807F4D46F2D005F10109B8FB65
:10076000F9FED645F5D886450C6016601D60F0D1BF
:100770000120BDE8F08F0325EFE700BF3832040009
:10078000A086010030B500242A4985B0D1F8803018
:1007900004AD23F0020345F8044D01940294C1F81E
:1007A0008030FFF7A9FFD1F8803023F00103C1F8B2
:1007B0008030FFF7A1FFC1F80C41C1F88440FFF77A
:1007C0009BFF2B46C1F8044102AA01A94BF68030D9
:1007D000FFF79CFF30B92B4602AA01A945F6C0508D
:1007E000FFF794FF019B134963F30F04029B63F32C
:1007F00017440023C1F80C31C1F88440FFF77CFF97
:100800000123C1F88030FFF777FFD1F888305B0112
:10081000FBD5039BC1F804310323C1F88030FFF7F7
:100820006BFF044AD2F8883013F0407FFAD005B04D
:1008300030BD00BF00C00F40244BD3F88820C2F366
:100840000162032AD3F80C2102F003022DD1012A00
:1008500016D0022A1ED0D3F888101D48D3F888205D
:10086000D3F80431C1F30E0101FB0000C2F30742CB
:100870000132B0FBF2F0DBB20133B0FBF3F07047B2
:10088000D3F888101348D3F88820C1F30E01D3F8A9
:100890000431E9E7D3F88800D3F88820C0F30E00CC
:1008A0000130D3F804310004E0E7D3F80401012A51
:1008B000C0B200F1010303D0022A03D00648DCE7EE
:1008C0000648DAE74FF40040D7E700BF00C00F400A
:1008D00000127A0000366E0100093D00001BB700CF
:1008E00010B50446FFF7A8FF2401B0FBF4F025F093
:1008F00025FA0022104B25F0E5F825F01DFB01211B
:1009000084B20320FFF7AAFD01210320FFF7C0FDF9
:100910000A4B1A6822F0F0021A601A6842F050027C
:100920001A608022A3F500331A73220A1A71032277
:10093000E4B21C701A7310BD0000E03F00C002401A
:10094000034A1368DB07FCD5024B1878704700BFD9
:1009500014C0004000C00040034B044A18701368E4
:100960005B06FCD50120704700C0004014C0004069
:1009700008B5411E11F8010F20B90A20BDE8084052
:10098000FFF7EABFFFF7E8FFF4E710B5044600F011
:100990001BFF204626F08AFF044600F0B5FF0CB985
:1009A00000F02EF8204610BD10B5044640B100F00E
:1009B0000BFF204626F082FFBDE8104000F0A4BFE8
:1009C00010BD30BF7047FFFF10B50C46094803F05B
:1009D0004BF9204603F048F9074803F045F907486A
:1009E00003F006FF4FF08043AA221A7200221A7009
:1009F00010BD00BF510D04007A0D0400C0C62D00CB
:100A000008B5064803F030F9054803F0F1FE4FF051
:100A10008043AA221A7200221A7008BD1B0D04001E
:100A2000C0C62D004FF0100383F31188BFF36F8F02
:100A3000BFF34F8FFEE7FFFF06480068006880F3B2
:100A4000088862B661B6BFF34F8FBFF36F8F00DFC8
:100A500000BF000008ED00E04FF0807340F8043C58
:100A6000054B21F0010140F8081C40F80C3C40F80F
:100A7000202C4038704700BF250A0100FFFFFFFF10
:100A8000074B19680868B0E8F00F80F30988BFF3D6
:100A90006F8F4FF0000080F311884EF00D0E7047FD
:100AA000A8C307207047FFFF4FF0100383F311889E
:100AB000BFF36F8FBFF34F8F024A13680133136088
:100AC000704700BF9CC30720034A1368013B1360B3
:100AD0000BB983F3118870479CC30720FFFFFFFF0A
:100AE000EFF30980BFF36F8F0D4B1A6820E9F00F09
:100AF00010602DE908404FF0100080F3118800F0DD
:100B0000E5FF4FF0000080F31188BDE80840196848
:100B10000868B0E8F00F80F30988BFF36F8F704763
:100B2000A8C3072008B54FF0100383F31188BFF363
:100B30006F8FBFF34F8F00F061FE18B14FF08052FE
:100B4000024B1A60002383F3118808BD04ED00E016
:100B50004BF67F32024B1A60072243F8042C704791
:100B600014E000E008B5094B1A6842F478021A60F4
:100B70001A6842F078421A60FFF7EAFF0022044B3D
:100B80001A60FFF759FFFFF74DFF00BF20ED00E0AF
:100B90009CC3072008B5FFF7C9FC024BC3E900015D
:100BA00008BD00BFA0C3072008B5FFF7BFFC024B7C
:100BB0001B68C01A08BD00BFA0C3072008B5FFF717
:100BC000B5FC024BC3E9000108BD00BFA0C307206C
:100BD00010B51820FFF7D9FE044620B1002340F8D5
:100BE000043B00F087F8204610BDFFFF2DE9F843D5
:100BF00006460D4699469046089F00F0E5FD34688C
:100C000004EA0503B9F1000F13D1A3B9D7B1B8F1C4
:100C1000000F0CBF00214FF08071B9F1000F01D01F
:100C200041F080613A462943301D01F013F8002459
:100C300008E09D42EAD1B8F1000F02D024EA050392
:100C40003360002700F060FED7B138B94FF0805212
:100C5000114B1A60BFF34F8FBFF36F8F01F006FA8D
:100C6000830104460AD4FFF71FFF346805EA040332
:100C7000B9F1000F07D143B9FFF726FF24F07F44F5
:100C80002046BDE8F8839D42F6D1B8F1000FF3D0BD
:100C900024EA05053560EFE704ED00E0F8B5044609
:100CA0000D4600F10C0600F08FFD236820692B43F0
:100CB00000252360B042216806D121EA05012160A8
:100CC00000F022FE2068F8BD90E8880013F0806FE5
:100CD00023F07F4203D10A4204D13846EAE732EAE0
:100CE000010EFAD1DB0100D5154341F0007100F08F
:100CF000FDFFF2E700F1080343604FF0FF32C360ED
:100D00000361002382600360704700230361704722
:100D100043689A684B608A609A685160996003687A
:100D200008610133036070470A6830B5531C0AD16B
:100D300003695A684A6091608B6059600368086172
:100D40000133036030BD00F108035C682568AA42E6
:100D5000EFD32346F9E74168826803698A608268B5
:100D600051605968884208BF5A60002202611868C1
:100D700001381860704770B51546026C0446866BE2
:100D800042B905689DB9406801F038F965600136DF
:100D9000A66370BD6DB9806826F001FEA368226C61
:100DA00013446268A360934201D32368A3600020C8
:100DB000EDE7C06826F0F3FD236CE2685B42216832
:100DC0001A448A42E2603EBF62689B18E360022DCB
:100DD000EDD10EB1013EEAE73046D8E773B5856C38
:100DE0000A46EB6BA96B019099421AD201A92846D9
:100DF00095F84540FFF7BFFF64B2631C06460BD170
:100E00006B6A33B105F1240000F038FF002818BFE9
:100E10000126304602B070BD013464B285F8454009
:100E2000F7E70026F5E703461A6C10B4084662B1EE
:100E3000D9685C681144A142D96028BF196810BC08
:100E400028BFD960D96826F0AABD10BC704770B51C
:100E50000446FFF729FE94F8455004F124066DB2CC
:100E6000002D14DCFF2384F84530FFF72DFEFFF73B
:100E70001BFE94F8445004F110066DB2002D19DCED
:100E8000FF2384F84430BDE87040FFF71DBEA36C1B
:100E90004BB100212046FFF7A1FF08B100F086FF0B
:100EA000013D6DB2DCE7636A002BDBD0304600F019
:100EB000E5FEF2E72369002BE2D0304600F0DEFECB
:100EC00008B100F073FF013D6DB2D7E738B50446B5
:100ED0000D46FFF7E9FD206CE36B22684343D11810
:100EE0001B1A13446160E3600021FF23A163A26029
:100EF00084F8443084F8453095B9236963B104F12E
:100F0000100000F0BBFE38B14FF08052094B1A6060
:100F1000BFF34F8FBFF36F8FFFF7D6FD012038BDB2
:100F200004F11000FFF7E6FE04F12400FFF7E2FEF3
:100F3000F2E700BF04ED00E070B5064648434C30D0
:100F40000D46FFF722FD044648B155B92060E6631F
:100F5000256401212046FFF7B9FF0023A364204642
:100F600070BD00F14C030360F1E710B502220C469E
:100F70000021FFF7E1FF00B1846310BD2DE9FF47B9
:100F80000027044689461E46B846DFF8F0A00192C5
:100F9000FFF78AFDA26BE36B9A4201D3022E21D1A7
:100FA000324649462046FFF7E6FEA36C93B1314630
:100FB0002046FFF713FF38B14FF080522F4B1A60D5
:100FC000BFF34F8FBFF36F8FFFF77EFD012004B09B
:100FD000BDE8F087636A002BEDD004F1240000F037
:100FE0004DFEE8E7019D1DB9FFF76EFD0020EEE71D
:100FF00017B902A800F0A8FEFFF766FD00F0E4FBB9
:10100000FFF752FD94F84430FF2B08BF84F844806A
:1010100094F84530FF2B08BF84F84580FFF754FD56
:1010200001A902A800F09CFE10BBFFF73DFDA76BD5
:10103000E56BFFF749FDAF4214D1019904F11000AF
:1010400000F0F8FD2046FFF702FF00F05DFC38B924
:101050004FF08053CAF80030BFF34F8FBFF36F8F4C
:10106000012795E72046FFF7F2FE00F04DFCF7E779
:101070002046FFF7ECFE00F047FCB7E704ED00E088
:1010800010B5024600210120FFF756FF044638B193
:10109000002343600360C3601A461946FFF76EFFE2
:1010A000204610BD2DE9F041044690461F46EFF35F
:1010B00011864FF0100383F31188BFF36F8FBFF3D6
:1010C0004F8F826BC36B9A4201D3022F28D194F8C1
:1010D00045503A466DB22046FFF74DFE6B1C1AD1C3
:1010E000A36C83B139462046FFF778FE08B901208A
:1010F00005E0B8F1000FFAD00120C8F8000086F32F
:101100001188BDE8F081636A002BF0D004F124005F
:1011100000F0B4FDEAE701356DB284F84550E6E72A
:101120000020ECE738B50D46EFF311844FF01002C4
:1011300082F31188BFF36F8FBFF34F8F816BC26B48
:10114000914221D290F84520013152B28163511C65
:1011500015D1826C62B10021FFF740FE08B9012071
:1011600003E0002DFBD00120286084F3118838BDF6
:10117000426A002AF3D0243000F080FDEEE701320D
:1011800052B280F84520EAE70020EEE72DE9FF475C
:101190004FF0000A04460F4698465646DFF81C9169
:1011A0000192FFF781FCA56B55B339462046E668EE
:1011B000FFF739FEB8F1000F1BD12368013DA5638D
:1011C00013B900F05FFF6060236963B104F11000A0
:1011D00000F054FD38B14FF08052384B1A60BFF325
:1011E0004F8FBFF36F8FFFF76FFC012004B0BDE896
:1011F000F087636AE660002BF5D004F12400E7E78E
:10120000019D1DB9FFF760FC2846EFE7BAF1000F1A
:1012100002D102A800F098FDFFF756FC00F0D4FAC6
:10122000FFF742FC94F84430FF2B08BF84F8446079
:1012300094F84530FF2B08BF84F84560FFF744FC65
:1012400001A902A800F08CFD50BBFFF72DFCA56B97
:10125000FFF73AFCF5B9236833B9FFF725FC60685E
:1012600000F084FEFFF730FC019904F1240000F047
:10127000E1FC2046FFF7EBFD00F046FB38B94FF0EC
:101280008053C9F80030BFF34F8FBFF36F8F4FF01B
:10129000010A86E72046FFF7DAFD00F035FBF6E7A6
:1012A0002046FFF7D4FD00F02FFBFFF7FDFBA56BF9
:1012B000FFF70AFC002DEAD1A6E700BF04ED00E02D
:1012C0002DE9F04107469046EFF311864FF01003E9
:1012D00083F31188BFF36F8FBFF34F8F846B0CB311
:1012E00090F84450013C6DB2FFF79DFD6B1CBC6350
:1012F00013D13B690BB901200BE007F1100000F09E
:10130000BDFC0028F7D0B8F1000FF4D00120C8F8D8
:10131000000086F31188BDE8F08101356DB287F8D1
:101320004450E8E72046F4E710B50446FFF7BCFB5D
:10133000A46BFFF7C9FB204610BD806B70470023EC
:1013400013B502AC44F8043D0A462146FFF71EFFE0
:10135000019802B010BD0268F0B503461AB34268A6
:1013600000F108045268A242426004BFC2684260B1
:101370004268D7685A684D1E526894425A6004BF4A
:10138000DA685A605A68D06800F1340200F13C0E05
:1013900012F801CB15F8016F664502D12EB17245E6
:1013A000F6D18742E6D10020F0BDF0BD30B5002572
:1013B000436800F108015B688B42436004BFC36867
:1013C00043604368DC685B68994208BFC368DA68B9
:1013D0009442D564F7D1436030BDFFFF4FF0805693
:1013E00008B5064C064D2368012B04D92E60BFF3C7
:1013F0004F8FBFF36F8FFFF7E4FAF4E7B4C3072012
:1014000004ED00E04269064B9A4201D0002070478B
:10141000806A044B9842F9D0B0FA80F040097047D6
:10142000E0C40720C8C40720064A13681968064BA1
:1014300019B94FF0FF321A6070471268D268D2684B
:101440005268F8E7ACC30720C0C40720F8B51B4BAF
:101450001B4E1D68044630680F460430FFF77BFCC6
:10146000334640B901203168164EC96A3268884057
:1014700022EA00023260621C07D137B119681248B3
:101480000431BDE8F840FFF743BC2C441A68A5427C
:10149000546007D90D4A10681968BDE8F840043156
:1014A000FFF742BC0A4A106819680431FFF73CFC98
:1014B000084B1A68944238BF1C60F8BDF4C407207A
:1014C000A8C3072090C40720E0C40720B0C30720AA
:1014D000ACC30720C0C407202DE9F84F4FEA820AA9
:1014E000804650460D4699460B9EFFF74EFA07463A
:1014F000002800F09B805820FFF747FA0446002898
:1015000000F0918052460763A521384626F06CFA18
:10151000236BAAF1040A9A442AF0070A6B1E04F10D
:1015200034020735597802F8011B13F8011F09B17D
:10153000AB42F7D10A9D4FF0000B092D28BF0925BA
:10154000271DE5626564384684F83BB0C4F848B0AE
:10155000FFF7DBFBC5F10A0504F11800FFF7D5FB27
:10156000C4F850B02461A5616462C4F84CB084F83A
:1015700054B04A4641465046FFF76EFA206006B125
:101580003460FFF791FA304B304E1A68DFF8E48090
:1015900001321A603568002D4BD134601B68012B75
:1015A0001AD108EB05001435FFF7A4FBC82DF8D1BC
:1015B000DFF8C490264D4846FFF79CFB2846FFF70E
:1015C00099FB2448FFF796FB2348FFF793FB234B37
:1015D000C3F80090224B1D600125224A224913685E
:1015E000086801331360E26A05FA02F3034314202A
:1015F0000B6000FB02803946FFF78AFBFFF764FAB5
:101600001A4B1B6863B13368DA6AE36A9A4207D2FD
:101610004FF08052164B1A60BFF34F8FBFF36F8F9E
:101620002846BDE8F88F3846FFF7BEF94FF0FF3582
:10163000F6E70E4B1B68002BCED13368DA6AE36AFB
:101640009A4298BF3460C7E780C40720A8C3072028
:10165000A8C40720C8C40720E0C40720ACC30720E3
:10166000B0C307208CC4072090C40720DCC4072027
:1016700004ED00E0B4C3072094C4072038B5104B34
:1016800004461B68984215D0FFF70EFA6569FFF70C
:101690001BFA0C4B1B689D420ED00B4B1B689D42E6
:1016A0000AD00A4B9D4209D1A36A002B14BF022025
:1016B000032038BD002038BD022038BD012038BDD0
:1016C000A8C30720ACC30720B0C30720E0C407208D
:1016D00070B5044660B3174D2B68984228D0FFF7C9
:1016E000E3F92046FFF78EFEF0B1261D3046FFF7E6
:1016F00032FB01231049E26A086893400343142037
:101700000B600E4B314600FB0230FFF701FB2B68EC
:10171000E26ADB6A9A4207D34FF08052084B1A60A4
:10172000BFF34F8FBFF36F8FBDE87040FFF7CCB9A9
:1017300070BD00BFA8C3072090C40720B4C3072012
:1017400004ED00E013B50024114B009401938022B6
:10175000234610491048FFF7BFFE012816D14FF06D
:10176000100383F31188BFF36F8FBFF34F8F4FF0D8
:10177000FF320A4B1A600A4B18600A4B1C60FFF7D5
:1017800009FA02B0BDE81040FFF7ECB902B010BD95
:10179000BCC40720A60D0400DD130100C0C407204F
:1017A000DCC40720F4C407204FF0100383F3118832
:1017B000BFF36F8FBFF34F8F0022024B1A60FFF70A
:1017C00071B900BFDCC40720024A136801331360FB
:1017D000704700BF88C40720014B1868704700BFDE
:1017E000F4C40720014B1868704700BFF4C40720F9
:1017F000014B1868704700BF80C407202DE9F84FDF
:10180000364B1B68002B47D1354B1C6801341C60DC
:101810005CB9344A344B116818681060334A196057
:10182000136801331360FFF7FFFD314D4FF0000BDC
:101830002B68304F9C423ED3DFF8A880DFF8C4907D
:10184000D8F80020126872BB4FF0FF322A6032E0F5
:1018500006F1040A5046FFF77EFAB16A19B106F1A3
:101860001800FFF778FA01224FF0140EF06AD9F849
:10187000003002FA00F119431F4BC9F800100EFBAB
:1018800000305146FFF744FA3868F16AC26A914263
:1018900028BF4FF0010BD3E7184A4FF0000B136835
:1018A0000133136011E0D8F80020D268D66871685F
:1018B0008C42CDD229603A680F4BD16A14224A4338
:1018C0009A58022A28BF4FF0010B0D4A1268002ACD
:1018D00018BF4FF0010B5846BDE8F88F88C40720A9
:1018E000F4C40720ACC30720B0C30720C4C407203A
:1018F000C0C40720A8C30720B4C3072084C407209E
:10190000F8C4072090C407202DE9F843FFF7CCF86E
:101910002A4B1A68013A1A601C682CB10024FFF7A0
:10192000D3F82046BDE8F883254B1B68002BF5D083
:10193000DFF8A490234FDFF8A480D9F80030E3B992
:101940000CB1FFF771FD204D2C6844B101271F4EEB
:10195000FFF754FF00B13760013CF9D12C601B4BFD
:101960001B68002BDAD04FF08052194B1A60BFF37E
:101970004F8FBFF36F8F0124D1E7D9F80C300125C9
:10198000DC68261D04F11800FFF7E5F93046FFF783
:10199000E2F91420E26A396805FA02F30B4300FB0E
:1019A000028031463B60FFF7B3F90A4BE26A1B68DD
:1019B000DB6A9A4224BF054B1D60BEE788C407203E
:1019C00080C4072090C4072084C40720F8C40720DF
:1019D00004ED00E0A8C30720C8C40720B4C3072053
:1019E00010B5FFF7F1FE124B04681A686318A242A3
:1019F00017D29C4219D99A422CBF002101210360C1
:101A000019B10021981AFFF721FDFFF77DFF38B9C2
:101A10004FF08052074B1A60BFF34F8FBFF36F8FA9
:101A200010BD9C42E7D90121E9E70021E7E700BFAB
:101A3000F4C4072004ED00E008B540B94FF080522F
:101A4000084B1A60BFF34F8FBFF36F8F08BDFFF7CE
:101A5000BBFE0021FFF7FAFCFFF756FF0028EDD090
:101A600008BD00BF04ED00E0F8B505460026FFF70D
:101A7000ABFE124F06F1B40029463844FFF76BFC69
:101A80000446B0B9143E16F1C80FF3D10C4B2946E9
:101A90001868FFF760FC044658B90A4B29461868D5
:101AA000FFF759FC044620B929460748FFF753FCC5
:101AB0000446FFF729FF2046F8BD00BFB4C3072046
:101AC000ACC30720B0C30720E0C40720264B70B585
:101AD0001A68264B12B101221A6070BD1A60FFF716
:101AE00063F8234A234C1568A84204D92168CB6CBB
:101AF0005B1B0344CB64236810601B6B1A68B2F154
:101B0000A53F0BD15A68B2F1A53F07D19A68B2F14F
:101B1000A53F03D1DB68B3F1A53F04D0206821685D
:101B20003431FEF751FF144B1B68B3FA83F31420D2
:101B3000DBB2C3F11F0300FB03F210498D186E687E
:101B4000083276680A44964200FB031308BF7268A5
:101B50006E6008BF6A605B68DB68236023685A6B4D
:101B6000074B5A6470BD00BF88C40720F8C4072023
:101B70007CC40720A8C3072090C40720B4C3072053
:101B80000040024070B50446234EFEF78DFF04B9B5
:101B90003468251D2846FFF7DEF860B91421E06A95
:101BA0001E4B41435B5833B901221D4982400B68EB
:101BB00023EA02030B60A36A1BB104F11800FFF7CC
:101BC000CAF82946174D1848FFF7A2F8FEF77CFF20
:101BD0002A682AB1FEF768FFFFF726FCFEF774FFBC
:101BE00033689C4216D12B6843B14FF080520F4BA3
:101BF0001A60BFF34F8FBFF36F8F70BD0C4A0A4955
:101C000012680968914201D1336070BDBDE870402F
:101C1000FFF75CBF70BD00BFA8C30720B4C3072097
:101C200090C40720DCC40720E0C4072004ED00E0D6
:101C300080C4072010B50C46054B19681831FFF712
:101C400073F82046BDE810400121FFF7FFBB00BF3D
:101C5000A8C3072010B51446074B41F000411A688D
:101C6000916119681831FFF753F82046BDE810401C
:101C70000121FFF7EBBB00BFA8C3072038B5C3683D
:101C8000DC6804F118052846FFF765F8114B1B685E
:101C9000E3B9251D2846FFF75EF801230E49E26AE5
:101CA00008689340034314200B6029460B4B00FB4C
:101CB0000230FFF72DF80A4BE26A1B68DB6A9A4292
:101CC00085BF0120074B0020186038BD2946064813
:101CD000EFE700BF88C4072090C40720B4C30720E3
:101CE000A8C30720F8C40720C8C4072070B5012482
:101CF000C56841F0004101602E1DFFF72CF8304609
:101D0000FFF729F80C49EA6A086804FA02F303436A
:101D100014200B60094B314600FB0230FEF7F8FF40
:101D2000074BEA6A1B68DB6A9A4283BF054B204671
:101D30001C60002070BD00BF90C40720B4C3072002
:101D4000A8C30720F8C40720034B1B680360034B9C
:101D50001B684360704700BFC4C40720F4C4072059
:101D600038B50D460446FEF79FFE0E4B2A681868EC
:101D7000531C10D00C4B21681B689942636801D03A
:101D800098420DD2C11A8A420AD91B1A13442B60F9
:101D90002046FFF7D9FF0024FEF796FE204638BD07
:101DA0000124F9E7F4C40720C4C407200122014B31
:101DB0001A607047F8C407202DE9F0410C46174619
:101DC0009846064658BB1B4B1D6805F134036360FB
:101DD000EB6A256023612B6BE361EB6BA360237BD4
:101DE000032B07D1FFF7F0FCAB6A0BB1022323737F
:101DF000FFF78AFD6B6CB8F1050F6361EB6CA361B3
:101E00000FD084F80C808FB1296B0A46531A12F850
:101E1000010BA528FAD09B082384BDE8F081054674
:101E2000D3E73046FFF72AFC2073ECE72784BDE8B0
:101E3000F08100BFA8C307202DE9F84F0D68814647
:101E40000C4693461DB300254FF0240A4B6801F160
:101E500008075B68BB424B6004BFCB684B604B68B4
:101E6000D3F80C8063680AFB05915B6801229F42EE
:101E7000636008BFE36805F1010508BF636063683C
:101E8000DE685B463046FFF797FFB045EAD128464B
:101E9000BDE8F88F2DE9F84306469046FFF794FC1D
:101EA0001D4B1B688B4234D8002524272C46DFF8B5
:101EB000789005F1B40107FB046001224944FFF763
:101EC000BBFF143D15F1C80F0444F2D1134B02229D
:101ED000196807FB0460FFF7AFFF114B0444196852
:101EE000022207FB0460FFF7A7FF044407FB04601E
:101EF00003220C49FFF7A0FF0444B8F1000F03D000
:101F0000FEF752FEC8F80000FFF7FEFC2046BDE8D1
:101F1000F8830024F8E700BF80C40720ACC3072083
:101F2000B0C30720E0C40720B4C3072008B9064B9C
:101F30001868026B1346981A13F8011BA529FAD0EA
:101F4000C0F38F00704700BFA8C30720054B1B6874
:101F500033B1054B1B68002B0CBF022000207047DB
:101F600001207047DCC4072088C407202DE9F04118
:101F70000446002839D01E4DC36A2A68D26A9342AB
:101F800033D2142782691B4E002AA8BF2A6807FB98
:101F90000363A2BFD26AC2F10A02826142699A4215
:101FA00020D100F104084046FEF7D5FE124A48B998
:101FB000E06A4743F3592BB901211368814023EAB2
:101FC000010313602B681168D86A012383400B4317
:101FD00013601423E062414603FB0060BDE8F0415A
:101FE000FEF796BE2B68DB6AC362BDE8F08100BFD6
:101FF000A8C30720B4C3072090C40720F8B504463F
:1020000008B90020F8BD836CC16A426C013B914263
:102010008364F6D0002BF4D1051D2846FEF79BFE05
:10202000104E114A50B91421E76A794373582BB9FD
:1020300001201368B84023EA00031360636CC3F106
:102040000A01E362A1610124116804FA03F0084364
:1020500010601420294600FB0360FEF759FE20465D
:10206000F8BD00BFB4C3072090C40720044B1A6812
:1020700090691A681B68DB6AC3F10A0393617047B1
:10208000A8C30720044B1A681AB119688A6C013278
:102090008A641868704700BFA8C3072038B5FFF7E7
:1020A00093FBB424124D635913B12819FFF77EF93D
:1020B000143C14F1140FF6D10E4B1A68126812B1C9
:1020C0001868FFF773F90C4B1A68126812B1186898
:1020D000FFF76CF9094803680BB1FFF767F90022B5
:1020E000074B1A60FEF76AFDBDE83840FFF70CBCED
:1020F000B4C30720ACC30720B0C30720E0C4072047
:102100007CC4072010B5FEF74FFD064B064A196840
:1021100029B119681468CB6C1B1B0344CB64106095
:1021200010BD00BFA8C307207CC4072008B5FEF778
:102130003BFD014B186008BD7CC40720012070479F
:1021400070B50546164609B9002070BD4C1E14F83E
:10215000011F39B12B6832465B6828469847002832
:10216000F5D1F1E7012070BD38B504461546FFF7FB
:10217000E7FF2A462046BDE838400149FFF7E0BFA7
:10218000AB0D04002DE9F743002407460D469046A9
:10219000994602AE06F8014D3B684A461B68314637
:1021A0003846984778B19DF807200D2A03D00A2AAF
:1021B0001CBF2A7001350134444509DA0A2AEBD1E3
:1021C00000232B7001E0002CFAD103B0BDE8F083AE
:1021D0000020F5E70EB433B50446FFF7B7FE02283A
:1021E00006D100234FF0FF321946E068FEF7CEFF1C
:1021F00006AB0093009B059A21896068019329F042
:102200008FFB2389054698420ADB20F00F0110312D
:1022100089B22181606826F0B1FE60600028E9D1B2
:102220004FF0FF3261682046FFF78AFFFFF78EFE0E
:10223000022805D10023E0681A461946FEF79EFEE3
:10224000284602B0BDE8304003B07047064B10B5D9
:102250000360002304464360038103740120FEF7FA
:102260000FFFE060204610BDCC0D0400044B10B5FC
:1022700004460360406808B125F020FB204610BDED
:10228000CC0D04002DE9F04790F8055104468A462C
:1022900017469946089EDDF824801DB10025284682
:1022A000BDE8F0870AB9002EF8D0FFF74FFE0228EC
:1022B00035D00023202284F81131D4F80031C4F83D
:1022C0001471C4F81C6184F810A1C4F81891C4F802
:1022D00020811A60FEF72AF94FF47A72002324F065
:1022E000B5F910F57A7641F100070023D4F80C0116
:1022F0001A461946FEF74AFF28B194F81151B5FA6B
:1023000085F56D09CBE7FEF711F94FF47A720023DA
:1023100024F09CF98F4208BF8642E6D2EDE7002305
:102320004FF47A721946D4F80801FEF72FFF0028FF
:10233000B4D00023D4F80C011A461946FEF726FF44
:1023400000232021D4F8002184F810A184F8113151
:10235000C4F81471C4F81891C4F81C61C4F8208141
:10236000D4F80C0111604FF47A721946FEF70EFF93
:1023700020B194F81151B5FA85F56D090023D4F810
:1023800008011A461946FEF7F9FD88E710B441F036
:10239000010110BCFFF776BF7FB500238DF8173021
:1023A00001238DF80F200DF11702009201930DF11A
:1023B0000F02FFF7EBFF9DF8170007B05DF804FB75
:1023C0001FB504AC04F8012D069A00930192012375
:1023D0002246FFF7DBFF04B010BD13B5002401F067
:1023E000FE0101940094FFF74DFF02B010BD07B548
:1023F0008DF804208DF8053001AA0223FFF7EDFFC8
:1024000003B05DF804FB07B58DE80C00002341F034
:1024100001011A46FFF736FF03B05DF804FB002305
:1024200007B502AA02F8013DFFF7EDFF03B05DF822
:1024300004FBFFFF38B500250446C0F8001180F802
:1024400005510120FEF71CFE0322C4F808012946AD
:102450000120FEF771FDD4F800310C4AC4F80C01DC
:1024600093420CD002F5882293420AD0A2F50422AE
:10247000934208D10A2384F80431204638BD0B2347
:10248000F9E70C23F7E76323F5E700BF00C0054039
:1024900090F9043170B50B2B05460C46164635D025
:1024A0000C2B36D00A2B37D101210720FDF7D6FFA0
:1024B000B6F57A7F98BF4FF47A714FF06C0294BFF3
:1024C00071431649D5F80031B4FBF1F19A61282225
:1024D000642049084A43B2FBF0F21A613C2251439E
:1024E0000022B1FBF0F15961DA601A625A629A6215
:1024F000402201201A6095F90431094A590903F074
:102500001F0300FA03F342F8213070BD01211320AC
:10251000CCE701211A20C9E7002070BDA086010088
:1025200000E100E02022D0F800319A6110221A6008
:1025300008229A611A68D206FCD490F81031DB07A1
:102540004CBF0123022380F824317047002310B5CB
:1025500080F82431D0F8003104465A68282A44D043
:102560000DD8102A27D0182A28D0082A0CD1D0F844
:10257000181190F81021B1B942F0010215E0402A7B
:102580003ED005D8382A59D05B6884F811311DE057
:10259000502A3FD0582AF7D1D0F81C219B681370DD
:1025A000FFF7C0FF04E002F0FE029A6008229A6181
:1025B00094F8240110BD90F81021DDE72022D0F816
:1025C00020119A61D0F8182111B90AB92046E7E71D
:1025D000002AEDD0D4F81411013A11F8010B9860DB
:1025E000C4F81411C4F81821E0E7D0F81821002A23
:1025F000F0D190F81021D207E8D520221A60D5E753
:1026000020229A61D0F82021012A4FF00402F5D847
:102610009A61CBE79B68D0F81C211370D0F81C316D
:1026200004220133C0F81C31D0F82031013B012BCA
:10263000C0F82031D0F80031E0D1E9E790F810215E
:102640005B6812F0010F14BF0122022280F81131E1
:1026500080F82421ACE7FFFF13B50446FFF776FFAF
:1026600088B1002302A941F8043DD4F80C01FEF71B
:1026700059FD019B3BB14FF08052044B1A60BFF3F0
:102680004F8FBFF36F8F02B010BD00BF04ED00E0AD
:1026900037B5044615468DF80710FFF757FC02289A
:1026A00009D063699DF807201A701A7D5206FCD57F
:1026B000012003B030BD00232A460DF10701E06977
:1026C000FEF75CFC0028F4D063691B7D5B06EFD548
:1026D00000230DF107011A46E069FEF757FD0028B7
:1026E000E6D063699DF807201A70E1E710B504464B
:1026F000024B0360FFF7BAFD204610BD000E040038
:1027000010B50446FFF7F2FF20462C210AF0D7FA55
:10271000204610BD10B50446FFF718FC022807D16B
:10272000E069FEF701FE18B10120FFF785F9F7E730
:10273000012010BDF8B5064614460F4609B9002021
:10274000F8BD8369002BFAD0FFF700FC022809D1FD
:10275000002322463946B069FEF718FD003018BF45
:102760000120F8BDFDF7E2FE4FF47A72002323F05A
:102770006DFF00250444002339461A46B069FEF770
:1027800005FD58B9FDF7D2FE4FF47A72002323F00D
:102790005DFF8D4208BF8442EDD2D0E70120F8BD35
:1027A000802310B5446909012373006AB0FBF1F07E
:1027B00023F0C4FA064B002223F084F923F0BCFB7B
:1027C00080B2030A23710323C0B22070237310BDAB
:1027D0000000E03F002373B5426901938DF8033098
:1027E0009368044603F00E03042B21D00C2B1FD05A
:1027F000022B3FD1C069FEF7A0FDE38C984203D9BC
:10280000E069FEF79AFDE0841026002501AA0DF18B
:102810000301E069FEF754FD00282ED15DB34FF0AF
:1028200080521B4B1A60BFF34F8FBFF36F8F22E0B4
:10283000FEF7D8FF0025A06263691A7DD2070ED586
:102840001B7801AA8DF803300DF103010023A06964
:10285000FEF728FC019B002B18BF0125ECE7A069BF
:10286000FEF76BFDA38C9842D8D9A069FEF765FDF1
:10287000A084D3E7137D02B070BD63699DF8032087
:102880001A70019B002B18BF0125013EC6D0BDE781
:1028900004ED00E038B504460D46FFF7D7FC064BC3
:1028A0006561236000232046A361E3612362A38462
:1028B000E384A36238BD00BF000E040070B5164665
:1028C0001D46254A43690446934201622FD10121E6
:1028D0000320FDF7C3FD2022204B31461A60412220
:1028E000636920461A721A7A42F006021A72FFF7DA
:1028F00057FFA26942B9082D28464FF00101B8BF21
:102900000820FEF719FBA061E2693AB90498012199
:102910000828B8BF0820FEF70FFBE06107226369B3
:102920005A60A3690BB1E369A3B9002070BD0C4ADA
:10293000934205D101211820FDF790FD8022CBE7BD
:10294000084A9342F1D101211920FDF787FD4FF488
:102950008072C1E7012070BD00C0004000E100E0CE
:102960000080094000C00940074A136823F0E06373
:1029700023F0FF0313600123116803FA00F041F014
:10298000807108431060704700400340002307B582
:102990000D4A019352680D48C2F30B12ADF80220A4
:1029A0000DF1020101AA0068FEF77CFB019B3BB11F
:1029B0004FF08052064B1A60BFF34F8FBFF36F8FFB
:1029C00003B05DF804FB00BF0040034000C50720D2
:1029D00004ED00E010B5FDF72FFF0121C4080C2025
:1029E000FDF73CFD03210C20FDF752FD4FF40013D1
:1029F000104A114913600223B4FBF3F0884214D843
:102A0000116841EA032313600120FEF739FB0B4BE9
:102A10000022186002210120FEF78EFA4FF4800296
:102A2000074B1860074B1A6010BD0233B3F5807F67
:102A3000E2D1E9E7004003403F5DC600FCC4072047
:102A400000C5072000E100E0F7B50024072805468F
:102A5000ADF806401DD8FFF779FA0228154E1CD1B3
:102A6000154F23464FF0FF3221463868FEF78EFBA4
:102A70002846FFF779FF23464FF0FF320DF106019C
:102A80003068FEF783FB2346224621463868FEF76E
:102A900075FABDF8060003B0F0BD2846FFF764FFE5
:102AA00000230DF106011A463068FEF76FFB00287F
:102AB000F6D0EEE700C50720FCC40720026830B559
:102AC000D36913F0040310D002F1300301F11004B4
:102AD00051F8045BA14243F8045BF9D1438A013306
:102AE000438221230120536030BD184630BDFFFFD3
:102AF0002DE9FF41264C450154F805806719D8F8A7
:102B00000C60D8F808303343D90716D57868FEF73B
:102B100014FCFB8908F1200198424FF0000388BFA4
:102B2000F88167191A467868FEF7BCFA58B3BB8A71
:102B30000133BB820423C8F8043040F202631E4212
:102B400012D06719B868FEF7F8FB3B8A002298425A
:102B500088BF388267196946B868FEF7B1FB18B1BB
:102B600069463846FFF7AAFFB20603D563199B6989
:102B700030469847330703D52C44E36930469847DD
:102B800004B0BDE8F081BB890133BB81D2E700BF4F
:102B90008CC00720084B10B5D3F8C440A20402D55E
:102BA0000020FFF7A5FF630404D5BDE81040012015
:102BB000FFF79EBF10BD00BF00C00F4070B50546B7
:102BC0000E4614460CB12B6803B970BD226813423F
:102BD00008D06368984722682B6823EA02032B60B9
:102BE00023683360A468EDE7F8B5012484400F46FC
:102BF00016461D4610D079B10C2024F057FE58B16E
:102C00004FF40012336880E8900083602B683060D6
:102C10001C43024B2C601A60F8BD00BF00E100E0CD
:102C20001FB5184C1849636868460093A368019360
:102C3000636A0293A36A0393144B1A68FFF7BEFFFB
:102C4000134B11491A6801A8FFF7B8FF114B12493D
:102C50001A6802A8FFF7B2FF104B0F491A6803A8C1
:102C6000FFF7ACFF009B0BB9019B13B14FF0FF3393
:102C7000E360029B0BB9039B13B14FF0FF33E36298
:102C800004B010BD808002408C80024008C507203F
:102C900004C5072010C50720AC8002400CC50720E2
:102CA00010B414460029064A0649074B18BF1346BC
:102CB000064A18BF0A46214610BCFFF795BF00BF61
:102CC0009480024004C507209080024008C5072078
:102CD00070B5184B0E465C69174B05461A6C1A20E6
:102CE00022F470021A641A6C04F4406442F4200264
:102CF0001A64996E41F440619966196821F4700173
:102D00001960196841F4200119600321FDF7C0FB27
:102D1000FDF792FDB4F5406F06D13246C108284652
:102D2000BDE87040FFF7B4BB0123002085F80531F2
:102D300070BD00BF00C0092000C0024010B50446AD
:102D40000249FFF777FB204610BD00BF00000A4094
:102D500038B5084C23683BB94FF4947009F0E0F99A
:102D60000546FFF7EBFF25602068BDE83840FFF718
:102D700073BC00BF14C5072008B5044B1B689847F7
:102D8000034A137A43F00103137208BD18C50720E4
:102D900000000B401FB50446054B0DF1100E0FCB84
:102DA0000EE90F000EEB840454F8100C04B010BDB3
:102DB000140E0400F7B50F460646FFF7EBFF172386
:102DC0000124162202218DF803308DF8073002AB62
:102DD0001E448DF802208DF801108DF80040054644
:102DE0008DF8051016F8080C21468DF806208DF890
:102DF0000440FDF733FB214616F8040CFDF748FBB1
:102E00000023AB606C602B67FDF716FD034BB0FB36
:102E1000F3F04743EF6003B0F0BD00BF40420F0046
:102E200070B590F853508AB0044605B9457C2846E1
:102E300006F0BAF9002294F8523084F8522094F83F
:102E4000542006460092012104F13A02284605F07A
:102E5000D9FF044670B1314602A806F02BFD48B1F7
:102E60009DF80C3003F0C003C02B03D19DF808304F
:102E7000AB4200D0002420460AB070BD10B5044615
:102E8000024B0360FFF7F2F9204610BD880E0400E4
:102E900010B50446FFF7F2FF2046582109F00FFF56
:102EA000204610BD10B590F85240621CD2B20444C6
:102EB000172A80F8522084F83A1002D903689B68D8
:102EC0009847012010BD70B50E46037E90F8311072
:102ED00004469942B4BF012500250BDB1146113091
:102EE00006F0E0FC30B10023257E84F83130ED1A85
:102EF00018BF01253DB194F831305A1C84F83120B7
:102F00001C44637E3370284670BDFFFF70B50446D5
:102F1000FFF79CF90C4B0025236021260323324642
:102F200084F85430294684F8535004F1110024F0F9
:102F30005BFD3246294604F1320024F055FD07209E
:102F400005F030FE204670BD880E0400F0B587B055
:102F50006C460F4D074695E807008DE8070003AE65
:102F600095E8070086E807000C223146204624F049
:102F700007FD38B903CC386020687960B8603846FE
:102F800007B0F0BD95E8070084E80700E8E700BF58
:102F9000144002400022184B1A720278C2F3050254
:102FA00083F820204278C2F3050283F82420827837
:102FB000C2F3040283F82820C278C2F3020283F825
:102FC00030200279C2F3040283F82C204279C2F344
:102FD000030283F83820C179827901F00F0142EAB7
:102FE0000122417A9A87027A01F00F0142EA012216
:102FF0009A8601221A727047004002401FB50121D3
:103000000920FDF72BFA01222F4B01A81A72FFF7B6
:103010009DFFBDF80A3003F62603C3F30B030F2B05
:103020001ED89DF8053003F03F033B2B18DC9DF8BC
:10303000043003F03F033B2B12DC9DF8063003F015
:103040001F03172B0CDCBDF80C30C3F30B03B3F5D7
:10305000B77F05DA9DF8093003F00F030C2B2FDD45
:1030600001229DF8083001A862F304038DF80830AE
:103070009DF8093062F3030340F2DA728DF80930EB
:10308000BDF80A3062F30B03ADF80A309DF8073043
:103090006FF302038DF807309DF806306FF30403D9
:1030A0008DF806309DF805306FF305038DF8053077
:1030B0009DF804306FF305038DF80430FFF76AFFC5
:1030C00005B05DF804FB00BF0040024007B501A851
:1030D00028F078F801A823F099FC03B05DF804FB10
:1030E00008B501211D20FDF7B9F90122024B1A6331
:1030F0001A6BD207FCD508BD004000504FF0FF33DB
:1031000037B5B1F5805F01934AD2274B1C69E507BB
:1031100048D4264C2469E40744D4254CE5686D075F
:1031200035D40325234CA5602561234D1D60002A5D
:103130002FD001AC5C6041F00044DC6000249C6056
:1031400041F206041C61194C3AB3206041F08061E1
:103150000022E1606560A2604FF4086222611A6992
:1031600042F001021A61226942F001022261104A12
:10317000516A41F003015162D868C0F30B00002886
:10318000FAD1536A23F00303536203B030BDA5683C
:10319000C4E7586041F00844CFE701AA2260D7E7AE
:1031A0000120F2E70220F0E72041005000410050EA
:1031B00000000340004000500800034010B50A4CD6
:1031C00023681BB90120FDF75BFF2060FEF7BEFE00
:1031D000022808D1002320684FF0FF32BDE81040DC
:1031E0001946FDF7D3BF10BD1CC5072010B5FEF76B
:1031F000ADFE022808D1BDE81040002303481A465E
:1032000019460068FDF7BABE10BD00BF1CC50720F7
:1032100010B50446024B0360FFF728F8204610BDA6
:10322000000E040010B50446FFF7F2FF20462C21E3
:1032300009F045FD204610BDF7B50D460D49044681
:103240000868164620F0F000086008681F4640F045
:103250005000086001210320FDF71AF9FDF7ECFA90
:103260000097014633462A462046FFF727FB03B066
:10327000F0BD00BF00C0024010B504460349FFF78F
:1032800009FB034B2046236010BD00BF00C0004077
:10329000F00E040038B5074C236833B92C2008F031
:1032A0003FFF0546FFF7E8FF25602068BDE838408E
:1032B000FFF790BA20C5072010B50446024B036003
:1032C000FEF7D4FF204610BD000E040010B50446E2
:1032D000FFF7F2FF20462C2109F0F1FC204610BD3B
:1032E00010B504460349FFF7D5FA034B2046236087
:1032F00010BD00BF00800940580F040038B5074CCE
:10330000236833B92C2008F00BFF0546FFF7E8FFD0
:1033100025602068BDE83840FFF75CBA24C5072067
:1033200010B50446024B0360FEF7A0FF204610BD17
:10333000000E040010B50446FFF7F2FF20462C21D2
:1033400009F0BDFC204610BD10B504460349FFF747
:10335000A1FA034B2046236010BD00BF00C0094006
:10336000C00F040038B5074C236833B92C2008F08F
:10337000D7FE0546FFF7E8FF25602068BDE8384026
:10338000FFF728BA28C5072008B50C2024F08EFACC
:1033900018B1002303604360836008BD00B18068FA
:1033A000704738B50D46044608B9002038BD0820DE
:1033B00024F07CFA0028F8D00023436023680560DD
:1033C00033B92060A36860600133A360012038BD79
:1033D0006368002BF6D05860F4E798B12AB121B1A8
:1033E000106878B14368136008E0006841B100B923
:1033F000704740680139F9E7002AF3D10068704747
:103400000028F9D17047F8B50D4616461F4608B991
:103410000020F8BD0029FBD00468002CF8D0069BE2
:103420003A4631462068A84708B92068F8BD646864
:10343000F3E7F8B50D4616461F4608B90120F8BD5A
:103440000029FBD00468002CF8D0069B3A46314690
:103450002068A84708B16468F5E7F8BD2DE9F84F82
:103460001C4F04468846002B18BF1F46914672B376
:1034700069B3436882689A421CD305685D1919D202
:10348000A900C06825F07AFDA668E0604FEA860AC8
:10349000B5420ED9102008F043FE834610220021C9
:1034A00024F0A2FAE368013643F80AB00AF1040AEC
:1034B000EEE76560A368E268591C52F823300A9A67
:1034C000A160C3F800905F60C3F80880DA60BDE8CF
:1034D000F88F00BFDF2404002DE9F04F0C4693B0B5
:1034E00080464FF0FF321F492046FEF729FE002597
:1034F000DFF87890DFF878A0DFF878B0D8F80830F7
:103500009D4226D2D8F80C3053F825707B681846B7
:10351000019326F0B9FD2028019B14D902AE3A6828
:103520005146304625F046FF0A21304626F002FE7D
:10353000864202D2594626F017F831462046FEF759
:1035400049FE0135DAE73A6849462046FEF742FE71
:10355000F7E74FF0FF3204492046FEF705FE13B0AF
:10356000BDE8F08F4C1004007F10040073100400BD
:1035700060100400410B04002DE9F04105460846A7
:103580000F46164600F069FE002823DD0024AB68D4
:103590009C421BD2EB68384653F82480D8F80010C0
:1035A00000F0A2FE80B1D8F804305BB11A780C4963
:1035B000002A18BF19464FF0FF323046BDE8F041EF
:1035C000FEF7D2BD0649F6E70134E0E74FF0FF32DF
:1035D0000449F2E731462846BDE8F041FFF77CBFD9
:1035E000D40F0400F80F040038B50D460024284617
:1035F00000F033FE844208DA2146284600F0E1FF5D
:103600000378202B01D00134F1E72146284600F051
:103610002CFF2846BDE83840014900F08EBF00BFAE
:10362000092F04002DE9F04F0C4691B05149064690
:103630002046154600F0A1FF20224F49204600F009
:10364000F8FE074600284CD18146B368994556D309
:103650004FF00009DFF82CB1B368994580F0828003
:103660002022F3680DEB020153F8298003A800F033
:10367000CDFDD8F8001003A801F09FF8002301AA9F
:10368000594620460193029300F0F0FD01A826F070
:10369000FBFC012860D901A903A800F0B3FE824613
:1036A000002859D0D8F8002021463046FFF79CFF6B
:1036B000D8F80830D8F80C2029462046984760B939
:1036C0004FF0FF322D492846FEF74EFD4FF0FF32F6
:1036D000D8F804102846FEF747FD03A800F0AAFD1D
:1036E00035E0254A21463046FFF77EFF2A4621462F
:1036F0003046FFF741FF384611B0BDE8F08FF36860
:10370000202253F829802046D8F8001000F091FEBE
:103710008246F0B1D8F8002021463046FFF764FF1A
:10372000D8F80830D8F80C20294620469847074694
:103730000028E0D14FF0FF3210492846FEF714FD73
:103740004FF0FF32D8F804102846FEF70DFD57461B
:10375000D1E709F1010978E703A800F06BFD09F151
:10376000010979E74FF0FF3205492846FEF7FCFCD6
:10377000C1E700BFAB0D04001D10040022100400BF
:10378000F80F040047100400002337B502AC44F8DA
:10379000043D0D4D40B90346024621462868FDF719
:1037A000F5FC019803B030BD0A2221462868FDF7D8
:1037B000EDFC03460028F4D104490A8801320A804E
:1037C0004FF0FF32E9E700BF30C507202CC50720C6
:1037D000F0B50024ADF50D7D0D4607460294FCF7CB
:1037E000A5FE4FF47A72002322F030FF4FF40972E5
:1037F0000646214603A824F0F7F8002D38D01222FF
:103800001C4903A803F03AFD044668BB069903A8C7
:1038100003F0B0FF044630B902AB2A46394603A88C
:1038200003F07BFE044603A803F092FFFCF77EFE44
:103830004FF47A72002322F009FF0F4B801B1A8885
:103840009042029A88BF188095420CBF012600263C
:1038500006D0059B2146009308482B4625F070FAB8
:1038600030460DF50D7DF0BD054825F069FADDE720
:103870002C46DBE70F11040034C507202D1104008E
:10388000191104002F4B2DE9F74F1D68DFF8BC908C
:103890002E46DFF8BCA005F58068002302AF47F88C
:1038A000043D4EF660223946D9F80000FDF76EFC63
:1038B00008B1019B2BB9711B2846FFF789FF2E46E3
:1038C000EBE7D9F80000FDF72FFDBAF80030019CB6
:1038D0000130984288BFAAF80000204626F0D4FBA9
:1038E0000A230021235400F1010B019A06EB0B047B
:1038F00002F80B10A04501991FD8A8EB060230462C
:1039000024F04DF8A4EB08044FF480612846FFF73B
:103910005FFF3CB10199ABEB040B224659442846AA
:1039200024F03DF82C44084800234FF0FF3239467C
:103930000068FDF723FB2646AFE75A46304624F0E1
:103940002EF8F0E74CC5072030C5072048C50720F2
:103950002EC5072073B502AC44F8040D0D4649B1DD
:1039600000234FF0FF3221460A480068FDF706FBAE
:1039700002B070BD064626F087FB0A233354019B34
:10398000411C5D540198FFF723FF2B462A46214630
:103990000148EAE748C5072030C5072007B5FEF70C
:1039A000D5FA02280CD1084B1B684BB100230748FD
:1039B00002A941F8043D4FF0FF320068FDF7DEFA3E
:1039C00003B05DF804FB00BF4CC5072048C50720C5
:1039D00003289ABF024B53F820000020704700BF15
:1039E00038C50720014B1888704700BF2CC5072039
:1039F000014B1888704700BF34C50720014B188859
:103A0000704700BF2EC507202DE9FF412B4C804693
:103A10002568002D4AD14FF48060039523F046FFBE
:103A2000274E2060A8B92068002842D1336863B1CE
:103A30000A24002303A91A463068FDF7A7FB10B13A
:103A4000039823F03BFF013CF3D11E4825F02AFAEE
:103A50002CE02A4604210A20FDF76EFA1A4F2A4666
:103A6000386004210A20FDF767FA3B683060002BBC
:103A7000D9D00028D7D00A25962023F017FF03902D
:103A80000028D0D0002303A91A463068FDF776FA43
:103A9000013DF1D10195CDF800802B464FF4C07265
:103AA0000A490B48FDF718FD0028BCD004B0BDE85A
:103AB000F08123F003FF00232360B7E74CC5072004
:103AC00030C50720C310040048C50720BC100400FF
:103AD00085380100012303FA00F0044B1A7811B174
:103AE00010431870704722EA0000FAE7CCC00720A4
:103AF0002DE9F04F9A46454B97B01B6806460C4699
:103B00001546002B7CD00FA8FFF720FAFCF70EFD1E
:103B10004FF47A72002322F099FD8146FEF716FADF
:103B20003B4B821ED2F1000816AF48EB02080FCBC8
:103B300007E90F00002C66D02F21204626F0FAFA64
:103B400020B95C21204626F0F5FA00B1441CDFF8CC
:103B5000D4B04046002D08BF5D46FFF715FE9DF826
:103B60003E1095F800C001F01F0E9DF83D109DF825
:103B7000412001F03F010B919DF83C109DF8403031
:103B800001F03F010C9116A901EB860151F8101CC0
:103B900003F01F030D911F49CDF800E0BCF1000FA9
:103BA00008BF594607910D9902F00F0204910C9934
:103BB000CDF820A002910B99069501910594164924
:103BC000CDF80C90074625F0F5FB21ABC0F195012F
:103BD000209A38440E9327F0A3FE104A414652F82B
:103BE00026303846013342F82630FFF7B3FE0C4B3F
:103BF0001B7843FA06F6F30702D5384625F052F94A
:103C000017B0BDE8F08F074CA1E700BF4CC50720F7
:103C1000AC10040076120400E810040038C5072038
:103C2000CCC00720DF2404000FB40E4B37B51B684F
:103C300093B1FEF78BF9831E5C425C412046FFF78F
:103C4000A3FD054607AB9521069A019327F068FE70
:103C500021462846FFF77EFE03B0BDE8304004B0A1
:103C6000704700BF4CC5072010B50446FCF71CFF89
:103C7000013C14F8010F18B9BDE81040FCF724BF4F
:103C8000FCF76AFEF5E70FB470B54FF48075C2B06B
:103C900046AC54F8046B2A46002102A823F0A4FE87
:103CA00023463246294602A8019427F039FE0446ED
:103CB00002A8FFF7D9FF204642B0BDE8704004B02B
:103CC0007047002313B50C4602A941F8043D006873
:103CD000FDF728FA019B1BB1236843F00103236021
:103CE000012002B010BD30B5044685B001A80D46D4
:103CF000FFF72CF99DF80630227903F01F039A4252
:103D00001BD19DF80530627903F03F039A4214D12C
:103D10009DF80430A27903F03F039A420DD10023AD
:103D200004A941F8103D23681868FDF7FBF9009BD2
:103D30001BB12B6843F001032B60012005B030BD9F
:103D400030B50025234A87B01378234C43F0010394
:103D5000137003A80295FFF7F9F82B46009502AA05
:103D60001E492068FFF765FB9DF80C3013F03F03F8
:103D70001BD1009302AA19496068FFF75AFB9DF80E
:103D80000D3013F03F0310D1009302AA1349A0682D
:103D9000FFF74FFB9DF80E3013F01F0305D1009382
:103DA00002AA0E49E068FFF744FB00230C48009389
:103DB00002AA0C490068FFF73CFB029B3BB14FF0A5
:103DC0008052094B1A60BFF34F8FBFF36F8F07B05C
:103DD00030BD00BF0040024050C50720C33C010079
:103DE00060C50720E73C010004ED00E001207047BA
:103DF0000120704701207047936810B4013B002BED
:103E0000936008DA9469A34202DBCBB20A2B02D199
:103E100010BC27F0C1BD1368581C10601970C8B2DF
:103E200010BC70470A4B70B51B780D467BB1094E2C
:103E3000441E14F8011F21B130688268FFF7DCFFCF
:103E4000F7E725B12846BDE8704025F02BB870BDD6
:103E500068C5072060C1072070B50C460B4E451E93
:103E600015F8011F21B130688268FFF7C5FFF7E739
:103E700024B12046BDE8704025F014B8034B0A2158
:103E8000BDE8704018688268FFF7B6BF60C10720C0
:103E90003F4B2DE9F7431A68036904469A4236D12D
:103EA00000273D4600213B48FFF7BCFF3A49606AC6
:103EB000FFF7B8FF00213948FFF7B4FF384BDFF8B0
:103EC000EC901E688EB1D6F800800137D8F800302B
:103ED00040461B69766898470028F3D14946D8F8D0
:103EE0002400FFF7B9FF0125ECE755B92D4EAF428D
:103EF0000DD0002330681A461946FDF73FF801350A
:103F0000F5E731462848FFF7A7FFFDF74DFC0023F2
:103F100024484FF0FF3219460068FDF737F9FDF7E6
:103F20005BFC02AE46F8040DFDF756FC0546DFF8D3
:103F30008080606818B1E168FDF701FAA06023682D
:103F4000A16A5B6920469847074630B9606A4146D6
:103F5000FFF782FF3846FDF715FEA3690133A36121
:103F6000236A1BB1FDF738FC854206D3E1690029BD
:103F7000DFD03046FDF734FDDBE7FDF72DFC256A89
:103F800005442069FDF7D2FF80006061EEE700BFC5
:103F900078C50720461304004A1304007713040071
:103FA00064C5072074C50720BD130400A4130400D2
:103FB000E51304002DE9F74F594D8046296839B9BA
:103FC0005848FFF749FF0124204603B0BDE8F08FB1
:103FD0004FF000094C4600215348FFF723FFDFF85C
:103FE00078B12E68DFF874A1CEB13768766807F132
:103FF0001003FA6A019397F83030C2F38F020093EE
:10400000796A3B46584609F10109FDF765FA00282F
:10401000EAD15146786AFFF71FFF0124E4E73146F1
:104020004846FCF7A2FF414B186020B93146404892
:10403000FFF712FF012400213E48FFF7F3FEDFF8EF
:1040400020912E686EB1376876683B6838469B6869
:1040500098470028F6D14946786AFFF7FDFE01240B
:10406000F0E731463448FFF7DDFE2F6887B3C0CF55
:1040700033683046DB68984700284CD0B8F1000F11
:1040800023D04FF001094FF0020A706A00F06EFC75
:10409000042306F1140229498DE80006834600F046
:1040A00077FE8DE8000600284FF0040306F11802A1
:1040B0002349584608BF4C4600F06AFE28B92149FA
:1040C000706AFFF7C9FE0124D0E7002CCED0F6E7D6
:1040D00039461D48FFF7A6FE1C491D4822F086FF01
:1040E000064620B100F05EFD304622F0EFFC0021D4
:1040F0002A680D46174B186842B117685268FE6A65
:10410000B542F9D2386935460121F5E700293FF477
:104110005BAF186058E7B8F1000FD0D04446B0E765
:1041200064C50720191204004712040074C5072053
:10413000791204009C120400CB120400F012040057
:10414000FB1204000513040029130400AC4F040003
:104150000022040078C50720913E01005E12040091
:10416000B712040010B5044638B1082007F0D8FF94
:10417000024B04601A681860426010BD64C50720D5
:104180000B4B10B518700846FFF714FF044658B9DA
:1041900001460848FFF746FEFDF7D4FA21460648D7
:1041A000BDE81040FFF758BE00210448F8E700BF03
:1041B00068C50720A4110400BF110400E311040026
:1041C00070B50B4D4FF47A7605600025456085602B
:1041D000056145618561C5614EF6602541620499BE
:1041E000C66005628162C26280F8303070BD00BF77
:1041F0008C110400044B1A6890423ABF5B6853F874
:1042000020000020704700BF6CC5072010B50123B7
:10421000044623700023002AD4BF1A4602F1FF325D
:10422000A1600846E36023616260002123F0DCFBAB
:10423000204610BD38B50446806818B123780BB904
:1042400023F03CFBE56835B12846FFF7F3FF142166
:10425000284608F034FD204638BD806825F014BF9C
:1042600040687047002283681A7070470EB403B527
:1042700003AA52F8041B8068019227F083FB02B066
:104280005DF804EB03B070470CB4F7B5002408AB3D
:1042900002AD53F8047B45F8044D2A4680680E466B
:1042A000009326F02AFE78B13B1B002B0CDD009B0F
:1042B0001A1D1B68009203B118602A46314600207F
:1042C00026F01BFE0134EEE7204603B0BDE8F040C7
:1042D00002B0704708B50B468168184625F038F9DA
:1042E000B0FA80F0400908BD08B5806825F0F5F8FF
:1042F000B0FA80F0400908BD2DE9F74F0F788A46E3
:10430000A7B34FF0FF35866833788BB333787BB330
:10431000384626F06BFF0146304625F00BF938B9D8
:10432000384626F070FF0146304625F003F9E8B123
:104330000446851B0AF10108461C14F8010FC1460A
:1043400088B198F800B008F10108BBF1000F0AD05D
:1043500026F04CFF0190584626F048FF019B83420F
:10436000EBD04FF0FF3599F80030CEE74FF0FF3536
:10437000284603B0BDE8F08F08B5FFF7BDFF013058
:1043800018BF012008BD10B58468204625F0E5FE61
:1043900008B1001B10BD4FF0FF3010BDF8B504464A
:1043A00008460D4625F070FE074688B1A6682946E6
:1043B000304625F0D2FE0346044634B1E0192946C2
:1043C00025F0CBFE23460446F7E70BB1981BF8BD5A
:1043D0004FF0FF30F8BD70B5044608460D4625F095
:1043E00053FE06462046FFF738FF864208DC324679
:1043F0002946A06825F077FEB0FA80F0400970BD2C
:10440000002070BD70B5054608460C4625F03CFE00
:1044100006462846FFF721FF864208DC3246A96897
:10442000204625F039FEB0FA80F0400970BD00202A
:1044300070BDF8B5044608460E46174625F024FE22
:1044400005462046FFF709FF85420CDCA36831468C
:1044500020465D5DFFF7D6FF30B1BD4204D0B5FA0E
:1044600085F04009F8BD0020F8BD38B50C4605467A
:10447000FFF7F3FE002C024609DDA04207DBA86827
:10448000121B0132011923F095FA012038BD0020DA
:1044900038BD38B50C460546FFF7DFFE0023A042C5
:1044A000A1BFAA68001B13540120B8BF184638BD2D
:1044B00070B50D4606461446FFF7CFFE002D11DB02
:1044C000A8420FDD002C0DDD421B9442A8BF14460C
:1044D000B068121B2C4401190132284423F06AFAF7
:1044E000012070BD002070BD70B505460E46FFF777
:1044F0004AFF431C044609D0304625F0C5FD21463D
:1045000002462846BDE87040FFF7D2BF002070BDCC
:10451000F8B585680F462B460024591B13F8016B2C
:104520003EB1BC4203D09642F7D10134F5E7FFF724
:104530009CFF201C18BF0120F8BDF8B506460D46AB
:10454000FFF78BFE00240746BC420EDA284625F012
:104550009BFD2B465A1B904207DDB16813F8012BD7
:10456000095D9142F6D10134EEE72CB12146304687
:10457000BDE8F840FFF779BFF8BDF8B50546084635
:104580000C4625F081FD07462846FFF766FE00260B
:10459000013800280DDB23461A1B974209DDAA6863
:1045A00013F801EB1118125C7245F5D10E70013849
:1045B000EFE7F8BDFFF78EBE80687047806822F095
:1045C000D4B938B50C460546FFF747FEA042A868A7
:1045D000C8BF001938BD037870B50546FBB9B1B145
:1045E0000131102491FBF4F4AE68013424016C60B5
:1045F0007EB9204623F05AF9A86018B12246314608
:1046000023F0F2F9A868003018BF012070BD042122
:10461000E7E7611C304624F0B1FCA860F2E7002017
:1046200070BD0022027042608260C2600261FFF7CA
:10463000D2BF10B504461021FFF7F3FF204610BD8E
:1046400010B50446FFF7EDFF204610BD43688B42CE
:1046500001DAFFF7C0BF012070470EB4F3B506467C
:10466000002407AB53F8047B0093B06880B17568F1
:10467000009B01353A462946019327F051F98542BE
:10468000044605DC411C3046FFF7E0FF0028ECD172
:10469000204602B0BDE8F04003B070472DE9F84372
:1046A000C36805460F46914633B9142007F038FD1C
:1046B0000446FFF7BEFFEC604FF00008EE682846A6
:1046C000B36883F80080FFF7C8FD01463046FFF766
:1046D000BDFFA8B1474513DB2846FFF7BEFD874263
:1046E0000EDAC1450CDDC41B4C45A8BF4C46A96879
:1046F00022463944B06823F052F9B36803F80480C5
:104700003046BDE8F88338B504460D46FFF7A5FDF1
:10471000294602462046BDE83840FFF7BFBF38B5FE
:1047200005460C46FFF799FD6B682118994205DD97
:104730002846BDE838402031FFF74DBF012038BD85
:1047400070B5054608460E4625F09EFC01462846F3
:10475000FFF7E5FF044618B13146A86824F0DBFEF8
:10476000204670BD002307B5ADF8043002AB03F856
:10477000041D1946FFF7E4FF03B05DF804FB70B5B4
:10478000044608460D4625F07FFC636801469842C2
:104790000DDD2046FFF71FFF064640B96268294637
:1047A000A06825F0B2FCA2686368D65470BD2946A3
:1047B000A068BDE8704024F0D7BEFFF7E0BF884294
:1047C00010B5044602D08968FFF7D9FF204610BD16
:1047D00038B5044608460D46FFF73FFD0146204622
:1047E000FFF71FFF29462046FFF7E9FF204638BDA7
:1047F00070B50646FBF79AFE841941F10005FBF7F8
:1048000095FEA94208BFA042F9D370BD08B5FDF7D7
:104810009DFB831E5842584108BD10B50446FFF762
:10482000F5FF20B12046BDE81040FDF705B94FF473
:104830007A706043BDE81040FFF7DABF2DE9F3411D
:1048400000240746904601940D4629B120B17868AE
:10485000FEF7A4FD844202D302B0BDE8F08101AAB4
:1048600021467868FEF7B9FD78B1C36886685E4373
:10487000B8F1000F06D02B684168324608EB030000
:1048800023F08DF82B681E442E600134DFE72DE9FC
:10489000F74300248846174601940646C0B1706865
:1048A000FEF77CFD844213D201AA21467068FEF710
:1048B00094FD90B1C3688568D7F800905D43416866
:1048C0002A4608EB090023F05BF820B100233B6087
:1048D00003B0BDE8F0834D443D600134DFE707B528
:1048E000002202A941F8042DFFF7A8FF019803B0A8
:1048F0005DF804FB07B5002202AB43F8042D0A461D
:104900001946FFF79BFF019803B05DF804FB0023F5
:1049100007B502AA42F8043DFFF7B9FF019800303D
:1049200018BF012003B05DF804FB10B50C4611461A
:104930001A46A047012010BD08B5006824F008FE03
:10494000003018BF012008BD07B5002330B1024672
:104950000448009304490068FEF755FD03B05DF874
:1049600004FB00BF7CC5072039490100F8B50646A5
:1049700010B900242046F8BD0378002BF9D0154D5E
:104980002B6813B9FEF700FD28603046FFF7DCFF07
:1049900007460028EDD1082022F088FF04460028B1
:1049A000E7D080E8C000FEF7EFFC606018B9204651
:1049B00022F084FFDDE728682146FEF7F2FC054679
:1049C0000028D7D1606822F079FF204622F076FFD8
:1049D0002C46CFE77CC5072007B50B4630B10092C7
:1049E0000246044804490068FEF723FD03B05DF861
:1049F00004FB00BF7CC507202B4901002DE9F043D3
:104A00000646C1B0154698460C46002950D01146BE
:104A100047680068A04729462648A047B26826494B
:104A2000684624F0C7FC29466846A047F268224938
:104A3000684624F0BFFC29466846A0471F49327CDF
:104A4000684624F0B7FC29466846A047B8F1000F35
:104A50000FD069464FF48072304600F0F9FA2946CB
:104A60006846A04716482946A047012041B0BDE846
:104A7000F0833A781349684624F09CFC294668463E
:104A8000A047B368F668DFF840905E4307F101087D
:104A90000136A6EB08033B44012BE3D9494618F83D
:104AA000012B684624F086FC29466846A047F0E7BB
:104AB0000846DBE7FA220400151404001A14040067
:104AC000DE2404001F1404001E14040070B50D46FB
:104AD000044625F0D9FA2B46024601212046BDE8BE
:104AE000704022F063BCFFFFF0B50C4687B017465C
:104AF0001D46064648B341B31022002102A822F009
:104B000073FF7068FEF74AFC1149024602A824F0C0
:104B100051FC29460F48A04729463068A04729463E
:104B20000D48A047294602A8A04700972B462246D9
:104B30000A497068FEF77DFC29460948A0472946C6
:104B40003068A04729460748A04707B0F0BD00BF1E
:104B50008237040024140400FA220400FD490100F5
:104B60002B140400DE2404004B688A680968FFF7F0
:104B7000BBBFFFFF1FB501900291039201A9002264
:104B80000248FFF729FF05B05DF804FB694B0100FF
:104B90000B4619B100220249FFF7A6BF704700BFBC
:104BA000CD4A01002DE9F04FC9B008AE054680227C
:104BB0000021304622F018FF0024DFF89CA12A468D
:104BC0007F21304622F0E4F818B9204649B0BDE80C
:104BD000F08F6049304625F0C0FA8642EFD13A2185
:104BE00024F0A8FC00F101083A21404624F0A2FC80
:104BF00007460028E3D0002303704046FFF7A4FED9
:104C000001900028DBD0781C21F0AFFE80460DF12A
:104C1000A009B8F1000F01D10124D0E700248022BF
:104C20000021484622F0E0FE2746284622F046F8BA
:104C3000431C19D03A2819D10137032F16DD00245F
:104C400007AA51464846079426F057F907AA514645
:104C50000746204626F051F907AA834651462046CA
:104C600026F04BF904463FB90024AEE709F80400EA
:104C700001347F2CD9D1E2E7BBF1000FF4D000283A
:104C8000F2D0584621F071FE8346204621F06DFE99
:104C9000394600FB0BFB019800F0B8F880B1826840
:104CA000C36853439B450BD1476807EB0B034FF099
:104CB000FF3B0393039B9F4205D1BBF10A0FD3D166
:104CC00008F1FF38A5E7284621F0F8FF04462846FA
:104CD00021F0F4FF0290284621F0F0FFB0F1FF3FF1
:104CE0008346C1D022F068FDE3B25A1C815C4807BC
:104CF00012D5303C22F060FD9DF80830E4B25A1C19
:104D0000815C24014907E4B215D5029B303B1C4469
:104D1000E4B207F8014BCDE70593049222F04CFD75
:104D2000049A059B825C02F00302012A08BF20332B
:104D3000A3F15704DEE70492029322F03DFD049AAA
:104D4000029B825C02F00302012A08BF2033573B1A
:104D5000DDE700BF24140400FA22040008B542680D
:104D60004B689A4207D00968006824F0F1FB0030D4
:104D700018BF012008BD002008BD08B50B4601681A
:104D8000184624F0E5FB003018BF012008BDFFFFE6
:104D90002DE9F743894690461F46BDF82850064640
:104DA00020B90025284603B0BDE8F0830029F8D0DB
:104DB000002AF6D0002BF4D0142022F077FD044610
:104DC0000028EED09DF82C30002D037408BF01257B
:104DD0000023C560C0F80090C0F80480876000938D
:104DE000024609497068FEF724FB054618B92046BB
:104DF00022F064FDD6E721467068FEF7D2FA054638
:104E00000028CFD1F3E700BF5D4D010013B50A467E
:104E100040B149B10C78002344B100930449406883
:104E2000FEF7F1FA02B010BD0846FBE72046F9E7AD
:104E30007B4D010037B50D46FFF786FD48B155B1F2
:104E40002C7800234CB100932A4605494068FEF7B0
:104E5000DAFA03B030BD2846FBE72046F9E700BF89
:104E60007B4D01002DE9F3471446FFF7E3FF804631
:104E7000002800F0DF8098F810300430013B85C82E
:104E800007FB0207072B00F2D580DFE803F0224B77
:104E900070ABD395D30405464FF00009674EBD4271
:104EA00028D22146304625F058F9221AD8F8043085
:104EB00050425041187023461A781C46013312B1F3
:104EC0002C2AF9D11C46D8F808304FF001091D44AE
:104ED000E5E700230646994602ADDFF864A145F8F0
:104EE000043DBE4206D22A465146204624F086FAA8
:104EF000012803D0484602B0BDE8F087D8F8082062
:104F00002946304622F04BFD23461A781C460133D1
:104F100012B12C2AF9D11C46D8F808304FF00109FB
:104F20001E44DEE700230546994602AEDFF814A1D1
:104F300046F8043DBD42DDD232465146204624F0BB
:104F40005DFA0128D6D1D8F808203146284622F04B
:104F500026FD23461A781C46013312B12C2AF9D1BA
:104F60001C46D8F808304FF001091D44E2E74FF025
:104F70000009054602AEDFF8D0A006F8049DBD4248
:104F8000B8D232465146204624F038FA0128B1D131
:104F9000D8F808203146284622F001FD23461A7829
:104FA0001C46013312B12C2AF9D11C46D8F808301E
:104FB0004FF001091D44E2E7002122F015FD2046D3
:104FC00025F062F8D8F80830D8F804509842024624
:104FD000214628BF03F1FF32284622F0E0FC4FF0C3
:104FE000010987E7002305464FF0000902AEDFF80C
:104FF0005CA046F8043DBD42BFF47CAF324651464A
:10500000204624F0FBF901287FF474AFD8F808207B
:105010003146284622F0C3FC23461A781C46013349
:1050200012B12C2AF9D11C46D8F808304FF00109EA
:105030001D44E0E74FF000095CE700BFE7140400FF
:10504000561404008E140400AD140400DA14040095
:10505000037C2DE9F74F013B05460C461646072B0E
:1050600000F2F781DFE813F008008B000D017801F2
:10507000D40147012A014E018368012B20D14768E2
:10508000CA4A97F900303146204624F05FF9DFF82C
:105090005493C7F1010807EB0803EA689BB29342F7
:1050A00003D3012003B0BDE8F08F204624F0ECFFCD
:1050B00017F9013F311A4A46204424F047F9EAE73C
:1050C000022B1BD1D0F80480B94AB8F90030314620
:1050D000204624F03BF90127DFF80893EB689F4254
:1050E000DFD2204624F0D0FF0137311A38F9023FD1
:1050F0004A46204424F02AF9BFB2EFE7042B1BD123
:10510000D0F80480AB4AD8F800303146204624F06D
:105110001DF90127DFF8D092EB689F42C1D22046EB
:1051200024F0B2FF0137311A58F8043F4A462044B0
:1051300024F00CF9BFB2EFE7082B40F08A81D0F8D9
:1051400004803146D8E900232046CDE900239A4A5D
:1051500024F0FCF80127DFF89492EB689F42A0D27C
:10516000204624F091FFF8E90223311ACDE900230B
:1051700020444A46013724F0E9F8BFB2EDE78368DE
:10518000012B1CD147688D4A3B783146204624F0DC
:10519000DDF8DFF85C92C7F1010807EB0803EA6865
:1051A0009BB29342BFF47DAF204624F06DFF17F809
:1051B000013F311A4A46204424F0C8F8EDE7022B9B
:1051C0001CD1D0F804807E4AB8F800303146204621
:1051D00024F0BCF80127DFF81892EB689F42BFF477
:1051E00060AF204624F050FF0137311A38F8023FF3
:1051F0004A46204424F0AAF8BFB2EEE7042B1CD1A3
:10520000D0F804806F4AD8F800303146204624F0A8
:105210009DF80127DFF8DC91EB689F42BFF441AFB6
:10522000204624F031FF0137311A58F8043F4A462E
:10523000204424F08BF8BFB2EEE7082B40F0098140
:10524000D0F804803146D8E900232046CDE9002378
:105250005D4A24F07BF80127DFF89C91EB689F42C0
:10526000BFF41FAF204624F00FFFF8E90223311AE4
:10527000CDE9002320444A46013724F067F8BFB245
:10528000ECE74768514A3B783146204624F05EF807
:10529000DFF86891C7F1010807EB0803EA689BB2E1
:1052A0009342BFF4FEAE204624F0EEFE17F8013F15
:1052B000311A4A46204424F049F8EDE74768444A49
:1052C0003B783146204624F041F8DFF83491C7F1AD
:1052D000010807EB0803EA689BB29342BFF4E1AE12
:1052E000204624F0D1FE17F8013F311A4A462044E7
:1052F00024F02CF8EDE74368364A3146204624F086
:1053000025F8CEE6D0F804A0334F9AF80030DFF845
:10531000F480324A002B14BF3B46434631462046B8
:1053200024F014F8D146DFF8E0B0CAF101034B4491
:10533000EA689BB29342BFF4B4AE204624F0A4FEC8
:1053400019F8013F311A002B14BF3B4643465A4619
:10535000204423F0FBFFE8E7D0F804900127D9F8B8
:10536000000020F00DFD1E4ACDE900013146204627
:1053700023F0ECFFDFF894A0EB689F42BFF491AEFE
:10538000204624F081FEA6EB000B04EB000859F840
:10539000040F20F0F5FC0137CDE9000152465946D3
:1053A000404623F0D3FFBFB2E6E700BF3614040047
:1053B000421404004B1404005A1404006B1404003B
:1053C000781404008214040092140400A41404004D
:1053D000B0140400BA140400E7140400C414040058
:1053E000D01404003E140400551404006514040095
:1053F000741404008D1404009E140400AC14040002
:10540000AD14040030140400CC140400D9140400BA
:10541000D0F804803146D8E900232046CDE90023A6
:105420000D4A23F093FF0127DFF83090EB689F428D
:10543000BFF437AE204624F027FEF8E90223311AE4
:10544000CDE9002320444A46013723F07FFFBFB255
:10545000ECE7002026E600BFDD140400D9140400A8
:1054600038B514461D46FFF7E5FC28B12A4621460B
:10547000BDE83840FFF7ECBD38BD10B50446FDF778
:105480009DFE1CB1012C08D0042402E000F0E2FCD7
:105490000446FDF7ABFE204610BD00F073F9F7E7B8
:1054A00028B1012801D00420704700F021BA7047CC
:1054B000F8B507460C4615461E46FDF77FFE1FB1A0
:1054C000012F0BD0042405E032462946204600F087
:1054D0000DFD0446FDF78AFE2046F8BD32462946FA
:1054E000204600F00DFAF4E7F8B507460C461546DD
:1054F0001E46FDF763FE1FB1012F0BD0042405E00B
:1055000032462946204600F029FD0446FDF76EFE8E
:105510002046F8BD32462946204600F03DFAF4E721
:1055200070B506460C461546FDF748FE1EB1012E25
:105530000AD0042404E02946204600F035FD044644
:10554000FDF754FE204670BD2946204600F07EFA45
:10555000F5E708B5FAF7EAFF4FF47A72002321F075
:1055600075F808BD10B50446FBF766F9074BB0FBAC
:10557000F3F00223B0FBF3F2944202D3044A136126
:1055800010BDB3F5807FF9D00233F3E740420F003E
:1055900000000340034B9860DA68D206FCD4986898
:1055A000C0B270470000034070B5FFF7D2FF00F5AE
:1055B000FA74FF20FFF7EEFF0025FF20FFF7EAFF58
:1055C000FF28064605D0FFF7C4FFA94208BFA04246
:1055D000F3D3304670BDFFFF38B54FF00075054C72
:1055E000E561FFF7E1FF044AA561137843F0010389
:1055F000137038BD20C00920CDC007202DE97043AD
:1056000006460D46FFF7A5FF643080464FF00009BF
:10561000FF20FFF7BFFFFF2808D1FFF79AFF49459A
:1056200008BF4045F4D30020BDE87083FE28FAD1BE
:10563000102D0ED900224FF400713046FDF75EFDAB
:10564000FF20FFF7A7FFFF20FFF7A4FF0120BDE821
:105650007083341D0435FF20FFF79CFF04F8040C11
:10566000FF20FFF797FF04F8030CFF20FFF792FFDE
:1056700004F8020CFF20FFF78DFF043404F8050C3A
:105680002B1BDE42E7D1DBE770B506460D46FFF780
:105690008BFFFF28044619D12846FFF77BFFFD2D1D
:1056A00016D022464FF400713046FDF727FD204604
:1056B000FFF770FF2046FFF76DFF2046FFF76AFFF8
:1056C00000F01F00431F5842584170BD002070BDBC
:1056D000012070BD020638B504460D4607D50021ED
:1056E0007720FFF7F7FF012836D804F07F044FF04A
:1056F00000721A4B9A61DA61FFF756FFFF282AD130
:105700002046FFF747FF280EFFF744FFC5F3074089
:10571000FFF740FFC5F30720FFF73CFFE8B2FFF7B4
:1057200039FF402C15D0482C14BF01208720FFF7EB
:1057300031FF4C2C02D1FF20FFF72CFF0A21FF2064
:10574000FFF728FF030607D5013911F0FF01F6D155
:1057500038BD9520EBE7FF2038BD00BF20C00920F1
:10576000064A074913784969DBB2490154BF03F07F
:10577000FD0343F003031370704700BFCDC0072043
:1057800020C009202DE9F743FFF7EAFF554B1A78AF
:105790001E4612F0020F04D01878C0B203B0BDE864
:1057A000F0830120FFF7DEFE0A24FF20013CFFF713
:1057B000F1FE14F0FF04F8D14FF000734A4F214678
:1057C000FB614020FFF786FF0128804613D04FF091
:1057D0000008464B83F800804FF00073BB61B8F1BE
:1057E000000F7BD03378182003F0FE033370FFF7EF
:1057F000B9FE3078D1E7FFF7ACFE4FF4D57100F574
:105800007A754820FFF766FF012840D10DF10408A2
:10581000FF20FFF7BFFE08F804000134042CF7D185
:105820009DF80630012BD2D19DF80730AA2BCED19E
:105830002C460025FFF78DFEA94208BFA0421ED3CB
:10584000FFF787FEA94208BFA042C0D200217A20FC
:10585000FFF740FF0028BAD10146FF20FFF79AFE6C
:1058600008F8010001310429F7D19DF8043013F044
:10587000400F14BF4FF00C084FF00408A9E74FF099
:105880008041E920FFF726FF0028D3D1D8E7214641
:10589000E920FFF71FFF02282C4636BF4FF0E90929
:1058A0004FF041094FF002080025FFF752FEA942D0
:1058B00008BFA0420BD3FFF74CFEA94208BFA0428D
:1058C00087D34FF400715020FFF704FF81E70021D8
:1058D0004846FFF7FFFE0028E7D1ECE7FFF77CFE24
:1058E00087E700BFCDC0072020C0092080C5072062
:1058F00008B5FFF735FF014B187808BDCDC007206C
:1059000070B5144606460846FFF72AFF002C38D02B
:105910001E4B1B78DA0736D44FF000721C4DEA613B
:105920001C4A1278130758BF4002012C014612D1BD
:105930005120FFF7CFFE38B94FF400713046FFF722
:105940005DFEB0FA80F464094FF00073201CAB6177
:1059500018BF012070BD5220FFF7BCFE0028F3D114
:105960004FF400713046FFF749FE28B1013C14F0B6
:10597000FF0406F50076F3D100214C20FFF7AAFEC4
:10598000E2E7042070BD032070BD00BFCDC007203A
:1059900020C0092080C50720F8B5144606460F46EA
:1059A000FFF7DEFE002C44D0254B1A78D10742D4F5
:1059B0001B785A0741D44FF00072224DEA61224A07
:1059C0001278130758BF7F02012C12D13946582094
:1059D000FFF780FE58BBFE213046FFF755FEB0FAB8
:1059E00080F464094FF00073201CAB6118BF0120E4
:1059F000F8BD12F0060F03D02146D720FFF76AFE4C
:105A000039465920FFF766FE0028EBD1FC213046CD
:105A1000FFF73AFE28B1013C14F0FF0406F50076CA
:105A2000F4D1FD210020FFF72FFE0028DAD1012458
:105A3000D8E70420F8BD0320F8BD0220F8BD00BF60
:105A4000CDC0072020C0092080C507207FB50D46A6
:105A5000FFF786FE05281AD12B78012B15D005D328
:105A6000022B0BD00424204604B070BD7B4B5C6934
:105A700014F0806409D1FFF7AFFDF4E7774B5B6961
:105A800083F08063C3F380636B700024EBE7744B97
:105A90001B78DB0700F1E0800E2800F2DB80DFE8F6
:105AA00000F00817555AD9D9D9D9D9D9A7ABBABD59
:105AB000CD004FF00072694BDA61FFF775FDB0F170
:105AC000FF0418BF01244FF00072644B9A61CAE7CB
:105AD00000214920FFF7FEFD044608B10124F2E74A
